:020000040800F2
:10000000A016002001010008431C00080318000886
:10001000411C0008E7010008B13E00080000000094
:10002000000000000000000000000000452900085A
:10003000E901000800000000C71F00084729000868
:100040001B0100081B0100081B0100081B01000820
:100050001B0100081B0100081B0100081B01000810
:100060001B0100081B0100081B0100081B01000800
:100070001B0100081B0100081B0100081B010008F0
:100080001B0100081B0100081B0100081B010008E0
:100090001D3E00081B0100081B0100081B01000891
:1000A0001B010008F12900081B0100081B010008C2
:1000B0001B0100081B0100081B0100081B010008B0
:1000C0001B0100081B0100081B0100081B010008A0
:1000D0001B010008012D0008192D00081B01000854
:1000E0001B0100081B0100081B010008DFF80CD0F1
:1000F00000F03CF800480047453F0008A0160020EB
:100100000648804706480047FEE7FEE7FEE7FEE7B1
:10011000FEE7FEE7FEE7FEE7FEE7FEE7A9290008A7
:10012000ED00000840EA01039B0703D009E008C97D
:10013000121F08C0042AFAD203E011F8013B00F8AC
:10014000013B521EF9D27047D2B201E000F8012BF8
:10015000491EFBD270470022F6E710B513460A4647
:1001600004461946FFF7F0FF204610BD064C074D28
:1001700006E0E06840F0010394E807009847103477
:10018000AC42F6D3FFF7B6FFD44C0008F44C00089D
:1001900070B58C1810F8015B15F0070301D110F849
:1001A000013B2A1106D110F8012B03E010F8016B76
:1001B00001F8016B5B1EF9D12B0705D40023521EF9
:1001C0000DD401F8013BFAE710F8013BCB1A921C61
:1001D00003E013F8015B01F8015B521EF9D5A1425F
:1001E000D8D3002070BDFEE770477047002200F0B2
:1001F00001B8000030B50E4B054601205C7A012C99
:1002000015D8587A00241C54587A03EB80004560B6
:100210005D7A03F108002A54587A421C5A72303031
:1002200008703A2048702F208870CC70002030BDB4
:10023000900E002010B590F821100024022903D060
:100240000421816301243DE001680A6822F00E0266
:100250000A6001680A6822F001020A601A4A01680D
:10026000914201D1012121E0174A1432914201D17A
:1002700010211BE0144A2832914201D1891515E062
:10028000114A3C32914201D189140FE00E4A50329A
:10029000914202D14FF4803108E00B4A643291421E
:1002A00002D14FF4801101E04FF08071064A083A04
:1002B0005160012180F82110002180F82010416B4D
:1002C00001B18847204610BD0800024070B50446C1
:1002D00000F0F2F80546601C02D00448007804449F
:1002E00000F0EAF8401BA042FAD370BD880000205D
:1002F0002DE9F84FDFF890A100220AF1040B144613
:1003000001274FF00F090BF1040E00BF0B6807FA2D
:1003100004F52B40AB4274D1DFF870C14E68A6EBF8
:100320000C0866452BD00DDC032E34D005DC36B32B
:10033000012E19D0022E2FD11BE0112E16D0122E15
:100340002AD119E0B8F5881F19D006DCB8F5803F2E
:1003500015D0B8F5801F1FD111E0B8F5001F0ED0E1
:10036000B8F5041F18D10AE0CA6815E0CA68121D62
:1003700012E0CA6808320FE0CA680C320CE08A68E2
:100380002AB1012A4FF0080203D0456104E004229B
:1003900002E0056100E00022FF2B01D8064601E0E3
:1003A00000F104064FEA840501D9A5F12005D6F82D
:1003B00000C009FA05F82CEA080C02FA05F54CEA27
:1003C000050CC6F800C04D68ED0057D5304DAE693C
:1003D00046F00106AE61AD6924F0030605F00105A3
:1003E00000952C4D06EB050CDCF80850A6074FEAEB
:1003F000167809FA08F6B543274EB04202D1002616
:1004000010E03BE0254EB04201D101260AE0244E27
:10041000B04201D1022605E0224EB04201D10326AE
:1004200000E0042606FA08F62E43CCF808604D6872
:10043000DAF80060ED03554601D51E4300E09E4307
:100440002E604D68DBF80060AD035D4601D51E43AC
:1004500000E09E432E604D68DEF80060ED027546B8
:1004600001D51E4300E09E432E604D68AD020E4D47
:100470002E6801D51E4300E09E432E60641C102CA4
:10048000FFF444AFBDE8F88F0004014000001110F4
:10049000001002400000014000080140000C014033
:1004A00000100140001401400C0401400AB1016138
:1004B00070470904FBE700000148806870470000AE
:1004C00088000020024881680278114481607047EA
:1004D00088000020074810B5016841F01001016054
:1004E000032000F08DF8002000F006F800F03EF840
:1004F000002010BD0020024000B5014687B0002258
:10050000192000F05DF8192000F04EF813488169B9
:1005100041F400618161806905A900F400600690E2
:10052000684600F015FC00F043FC0D490D4AB0FB95
:10053000F1F10D48491E0260416040F2E7320021AE
:10054000C0E90321816000F023FF10B1012007B052
:1005500000BD054800F038FFF9E700000010024038
:1005600040420F00002C0140500E00200C4808B5FE
:10057000816941F001018161816901F0010100910E
:10058000C16941F08051C161C06900F080500090A4
:100590000448416821F0E06141F00071416008BD0C
:1005A000001002400000014000F01F0201219140B4
:1005B0004009800000F1E020C0F800117047000001
:1005C000F0B40E4B1B680C46C3F30223C3F10705BE
:1005D000042D00D90425191D072901D2002300E0AC
:1005E000DB1E012606FA05F1491E214099409E4076
:1005F000761E16403143F0BC01F024BB0CED00E048
:10060000064900F0070208684FF6FF03184040EA69
:100610000220034A10430860704700000CED00E020
:100620000000FA0510B50C0605D501F07F0100EBBE
:100630004110283003E000EB411000F50A7099B238
:1006400032B101228272C180190C0181002010BDDB
:10065000002282728180F9E7704700EB4112D0F8E6
:100660005C04D26B02F0DABC00EB4112D0F85C04FF
:10067000D2F83C2202F027BD10B504460A460B060C
:1006800001F07F0004EB401101D5283101E001F5B4
:100690000A710870D009487094F82804012809D01C
:1006A000012084F82804206803F0D0F9002084F8A1
:1006B000280410BD022010BD70B50A460446090684
:1006C00002F07F0003D504EB4011283103E004EB76
:1006D000421101F50A7100258D700870D00948702B
:1006E00094F82804012809D0012084F828042068FF
:1006F00003F05AFA84F82854002070BD022070BD1F
:1007000010B5044690F8280401280AD0012084F886
:100710002804080607D501F07F01206803F07CFB60
:1007200004E0022010BD206803F074FB002084F870
:10073000280410BD01F00F0100EB4110B0F8440295
:1007400080B2704770B504460D460E0601F07F007A
:1007500004EB401101D5283101E001F50A71087060
:10076000E80948700A61CB7094F82804012809D080
:10077000012084F82804206803F038F8002084F869
:10078000280470BD022070BD70B50C4601F07F05D5
:1007900000EB4511C1E98F230022C1F8442281F802
:1007A000292281F8285201F50A716206006803F0D7
:1007B00055FA002070BD70B50D460446090605F0D7
:1007C0007F0003D504EB4011283103E004EB451111
:1007D00001F50A7101228A700870E809487094F8DE
:1007E0002804012807D084F82824206803F011FA8F
:1007F000680602D006E0022070BD04F22C41206899
:1008000003F0D0F9002084F8280470BD70B50C46C0
:1008100001F07F0500EB4511C1E90F2300224A6476
:10082000012281F8292001F8285F6206006803F0A0
:1008300015FA002070BD10B50446006803F0F4FA04
:10084000000402D5204601F00DFA206803F0ECFA0E
:1008500040050CD5206830F8441F21F480610180E8
:10086000204600F0EDF80021204600F0FEF8206858
:1008700003F0DAFA400405D5206830F8441F21F46B
:1008800080410180206803F0CFFA800405D52068FC
:1008900030F8441F21F400510180206803F0C4FAAD
:1008A000C00414D5206830F8401F21F004010180F5
:1008B000206830F8401F21F008010180204600F038
:1008C000CCF8206830F8441F21F480510180206862
:1008D00003F0AAFA00051AD5206830F8401F41F04D
:1008E00008010180206830F8441F21F40061018074
:1008F000206830F8401F41F004010180206803F0B7
:1009000093FAC043C00402D5204600F0E3F8206803
:1009100003F08AFA800508D5206830F8441F21F4D6
:1009200000710180204600F09CF8206803F07CFAFA
:10093000C00505D5206830F8441F21F4807101807E
:1009400010BD00002DE9F04186B004004FF0000515
:1009500004D094F82904002620B108E0012006B054
:10096000BDE8F08184F82864204600F04BF80320AD
:1009700084F82904206803F00EF904F11001142210
:1009800088466846FFF7CEFB94E80F0003F05CF85A
:100990000021206803F05BFA5FF0010704EB4510CB
:1009A00080F8297000F8285F8581C670066146616D
:1009B0006D1C86610F2DF1D35FF0000004EB401138
:1009C00081F8296281F82802888681F82B62C1F8B3
:1009D0003862C1F83C62401CC1F840620F28EDD378
:1009E000142241466846FFF79DFB94E80F0003F090
:1009F000C3F884F8246084F82974206803F0BAF8F6
:100A00000020ACE708B500680B49884212D10B48BA
:100A1000C16941F40001C161C069002200F4000015
:100A2000009011461420FFF7CBFDBDE808401420CC
:100A3000FFF7BABD08BD0000005C00400010024096
:100A400010B504460121D0F85C0402F021FCD4F872
:100A50005C04BDE8104002F0EABBD0F85C0402F090
:100A600005BCD0F85C0402F007BC10B5044690F851
:100A7000280401280BD0012084F8280484F82410CD
:100A8000206803F0E6F9002084F8280410BD022055
:100A900010BDD0F85C2400F22C41104602F00BBCD3
:100AA00010B5044690F82804012810D0012084F8DD
:100AB000280401462046FFF7CFFD206803F058F8D0
:100AC000206803F0A0F9002084F8280410BD02205B
:100AD00010BD000010B50446D0F85C0402F038FCEC
:100AE000A069002804D00348016841F006010160B4
:100AF00010BD000010ED00E02DE9F8430546007838
:100B0000354CC00754D0E0690026C00008D4E06925
:100B100040F08050E061E069012600F080500090D4
:100B20002E480168C90512D40168804641F48071DD
:100B30000160FFF7C1FC074605E000BFFFF7BCFC02
:100B4000C01B642823D8D8F80000C005F6D5206A59
:100B500010F4407021D0A98801F4407181421CD06A
:100B6000206A1F49012220F440700A6000220A60B6
:100B70002062C00711D0FFF79FFC074641F288387A
:100B800008E000BFFFF798FCC11B414502D90320D4
:100B9000BDE8F883206A8007F4D5206A696820F4EC
:100BA0004070084320621EB1E06920F08050E0618F
:100BB0002878800705D56068A96820F4404008437C
:100BC00060602878C00605D56068E96820F4800078
:100BD000084360600020DBE7001002400070004026
:100BE000400442422DE9F047DFF8548105460E46A5
:100BF000D8F8000000F00700B0420CD2D8F800107E
:100C000021F007013143C8F80010D8F8000000F0C7
:100C10000700B0426FD128684A4C810712D54007BF
:100C200003D5606840F4E06060602878000703D571
:100C3000606840F4605060606068A96820F0F0006F
:100C4000084360602878C00744D06868012816D03F
:100C50002168022816D0890700294CDA616821F042
:100C6000030101436160FFF727FC6968074641F211
:100C7000883001290ED00229814618D026E021684B
:100C80008903E9E78901E7E7FFF716FCC11B49453E
:100C900001D918E081466068C0F381000128F3D1D2
:100CA00018E000BFFFF708FCC11B49450BD860687E
:100CB000C0F381000228F5D10CE000BFFFF7FCFB78
:100CC000C11B494502D90320BDE8F087606810F0D8
:100CD0000C0FF3D1D8F80010404601F00701B142E3
:100CE0000BD9016821F0070131430160006800F071
:100CF0000700B04201D00120E6E72878400705D57B
:100D00006068E96820F4E0600843606028780007C4
:100D100006D56068296920F4605040EAC10060602F
:100D200000F056F86168084AC1F30311515CC840ED
:100D3000064908600020FFF7DFFB0020C4E7000041
:100D40000020024000100240A34C00089400002044
:100D50000F2202600C4A536803F003034360536898
:100D600003F0F0038360536803F4E063C3605268E8
:100D70004FF4E06303EAD20202610448006800F025
:100D80000700086070470000001002400020024089
:100D90000448054900684968044AC1F30221515CCE
:100DA000C84070479400002000100240B34C000877
:100DB0000448054900684968044AC1F3C221515CEE
:100DC000C84070479400002000100240B34C000857
:100DD00012A185B00FC98DE80F0014A0144A006855
:100DE00004905168134801F00C03042B10D0082B19
:100DF0000ED1C1F38343C9031DF803000AD551681E
:100E000004AAC1F34041515C0A4A5043B0FBF1F0DF
:100E100005B0704708494843FAE70000020304059B
:100E2000060708090A0B0C0D0E0F10100102000036
:100E30000010024000127A0000093D002DE9F84F31
:100E400004460078B94DC00748D06868C0F38100F7
:100E5000012807D06868C0F38100022809D16868BA
:100E6000C00306D52868800338D5606800286FD095
:100E700034E06068B0F5803F0BD010B1B0F5A02F22
:100E800011D0286820F480302860286820F4802061
:100E900002E0286840F480302860606888B1FFF77D
:100EA0000BFB064609E0286840F480202860F0E744
:100EB000FFF702FB801B642875D828688003F7D5EC
:100EC0000CE0FFF7F9FA064605E000BFFFF7F4FA79
:100ED000801B6428F0D828688003F7D42078944ECB
:100EE00080074FF001094FF000083BD5686810F00B
:100EF0000C0F07D06868C0F38100022809D1686828
:100F0000C00306D42868800714D5206901281FD1A2
:100F100010E02069B0B1C6F80090FFF7CDFA07469F
:100F200005E000BFFFF7C8FAC01B0228C4D8286834
:100F30008007F7D52868616920F0F80040EAC10011
:100F400028600FE0C6F80080FFF7B6FA074606E013
:100F5000E9E000BFFFF7B0FAC01B022823D82868D9
:100F60008007F7D4207800072CD57248A169D9B141
:100F7000C0F80090FFF7A0FA074604E0FFF79CFADC
:100F8000C01B02280FD8686A8007F7D56A484FF45B
:100F9000FA510068B0FBF1F0009000BF0098411ECC
:100FA0000091FAD20EE080E0C0F80080FFF784FAEA
:100FB000074604E0FFF780FAC01B022875D8686A6C
:100FC0008007F7D42078400760D5E8690027C00083
:100FD00008D4E86940F08050E861E869012700F032
:100FE0008050009055480168C90513D401688346B4
:100FF00041F480710160FFF75FFA824606E000BFAE
:10100000FFF75AFAA0EB0A0064284ED8DBF800007C
:10101000C005F5D5E06801280AD008B1052813D02D
:10102000286A20F001002862286A20F0040002E00B
:10103000286A40F001002862E06841F2883B98B1DC
:10104000FFF73AFA82460BE0286A40F00400286273
:10105000EEE700BFFFF730FAA0EB0A0159455AD876
:10106000286A8007F6D50CE0FFF726FA824605E0ED
:10107000FFF722FAA0EB0A0159454CD8286A8007ED
:10108000F6D41FB1E86920F08050E861E06988B3C8
:101090006968C1F38101022945D00228C6F8608041
:1010A00004D0FFF709FA044638E034E0FFF704FA09
:1010B000074604E0FFF700FAC01B02282BD8286877
:1010C0008001F7D4206AB0F5803F05D16868A16837
:1010D00020F4003008436860D4E9080108436968D7
:1010E00021F4741108436860C6F86090FFF7E4F9D2
:1010F000044606E015E000BFFFF7DEF9001B0228FA
:1011000009D828688001F7D50BE000BFFFF7D4F9B4
:10111000001B022802D90320BDE8F88F286880014F
:10112000F4D40020F8E70120F6E7000000100240A8
:1011300000004242800442429400002000700040BF
:1011400070B5040005D00025A56294F8510010B1D7
:1011500004E0012070BD204600F034F8022084F83D
:1011600051002068016821F040010160D4E90101CB
:101170000843D4E903121143084361690843218BF2
:1011800001F400710843E1690843216A0843A16A38
:10119000084321680860A069042101EA1040616ADF
:1011A0000843216848602168E06A08612068C169D5
:1011B00021F40061C1616565012084F851000020BF
:1011C00070BD000000B585B0002100910191029131
:1011D00003910068104988421BD11048C16941F44D
:1011E0008041C161C16901F480410491816941F08C
:1011F000080181618069694600F0080004904FF49D
:101200002040009002200190032003900448FFF743
:101210006FF805B000BD000000380040001002402B
:10122000000C01402DE9F84F044690F850000026CC
:10123000994617460D4601280DD04FF0010B84F852
:1012400050B0FFF739F9804694F85100B2460128B2
:1012500004D0022694E00220BDE8F88F002D7BD058
:10126000002F79D0032084F85100C4F854A02563DE
:10127000A786E786C4F838A0A4F83CA0A4F83EA04E
:10128000C4F844A0C4F840A0A068B0F5004F04D151
:101290002068016841F480410160206801684906C6
:1012A00003D4016841F040010160E068B0F5006FCF
:1012B000606804D030B3E08E012823D03EE010B146
:1012C000E08E01281AD135F8021B206805E020685D
:1012D0008168890706D535F8021BC160E08E401E83
:1012E000E0860BE0B9F1000F34D0B9F1FF3F05D033
:1012F000FFF7E2F8A0EB080149452BD2E08E002869
:10130000E5D11EE0216815F8010B087306E020689E
:101310008168890706D515F8011B0173E08E401E10
:10132000E0860BE0B9F1000F14D0B9F1FF3F05D012
:10133000FFF7C2F8A0EB080149450BD2E08E002868
:10134000E5D14B46012202212046CDF8008001F074
:101350000CF910B1032613E011E04246494620463D
:1013600001F0F3F818B101262020606508E0A068BC
:1013700018B92068C16880680090606D00B10126CE
:1013800084F851B084F850A0304665E77047704744
:1013900010B5040003D094F83D0010B107E001201F
:1013A00010BD002084F83C00204600F00CF802201C
:1013B00084F83D00211D206801F020FB012084F805
:1013C0003D00002010BD70470168CA6842F001026C
:1013D000CA600068016841F00101016000207047A7
:1013E000704770B50446006801694FF00005C943B5
:1013F000890715D4C168C943890711D4E91E016161
:1014000001202077206880698007204602D0FFF7FE
:10141000E7FF04E000F098F8204600F096F8257702
:1014200020680169C943490717D4C168C9434907FE
:1014300013D46FF0040101610220207720688069D5
:1014400010F4407F204602D0FFF7CAFF04E000F00E
:101450007BF8204600F079F8257720680169C943B8
:10146000090716D4C168C943090712D46FF00801EF
:101470000161042020772068C0698007204602D0DF
:10148000FFF7AEFF04E000F05FF8204600F05DF8E3
:10149000257720680169C943C90617D4C168C943C3
:1014A000C90613D46FF0100101610820207720686D
:1014B000C06910F4407F204602D0FFF791FF04E09E
:1014C00000F042F8204600F040F8257720680169D6
:1014D000C943C90708D1C168C943C90704D1891ED6
:1014E0000161204600F032F820680169C94309060D
:1014F00009D4C168C943090605D46FF080010161B0
:101500002046FFF743FF20680169C943490609D413
:10151000C168C943490605D46FF040010161204606
:1015200000F01EF820680169C94389060BD4C16820
:10153000C943890607D46FF0200101612046BDE848
:101540007040FFF724BF70BD7047704700680349C3
:10155000884201D1FEF7B6BF70470000002C014061
:101560007047704770B5026804461068D1685369C7
:1015700010F00F0F50D003F0010501F490763543C1
:101580005DD0C20705D0CA0503D5E26B42F0010267
:10159000E263420705D5DA0703D0E26B42F00202AC
:1015A000E263820705D5DA0703D0E26B42F004025A
:1015B000E263020705D5DA0703D0E26B42F00802C6
:1015C000E263E26B002A33D0800604D5880602D598
:1015D000204601F05FFA20684069E16BC0F380109B
:1015E000090700D428B3204601F046FA2068416973
:1015F00049061AD5416921F040014161606BA0B1F3
:101600001B494163606BFEF715FE002810D0606B2C
:10161000416BBDE870400847830610D58B060ED598
:101620002046BDE8704001F035BA2046FFF799FF2B
:1016300070BD2046FFF795FF0020E06370BD0306F4
:1016400006D50B0604D52046BDE8704001F026BB48
:101650004006F3D54806F1D5D168204621F0400177
:10166000D160202184F8391000F0CAF870BD000064
:10167000692A000870B5040004D094F839000025E8
:1016800010B106E0012070BD84F83850204600F00B
:1016900023F8242084F839002068C16821F400511F
:1016A000C160204601F042FA2068016921F49041AE
:1016B00001612068416921F02A0141612068C16807
:1016C00041F40051C160E563202084F8390084F8BA
:1016D0003A00002070BD0000F0B585B000240094F1
:1016E0000194029403942D4F03682D490220032294
:1016F0002C4D0126BB4225D18B6943F480438B617D
:101700008B6903F4804304938B6943F004038B617A
:101710008969039201F0040104910102CDE90010EE
:1017200069462846FEF7E4FD28158DE85100694614
:101730002846FEF7DDFD002211462520FEF740FF7A
:10174000252027E0184FBB4226D1CB6943F4003354
:10175000CB61CB6903F4003304938B6943F004033A
:101760008B618969039201F0040104910421CDE9A0
:10177000001069462846FEF7BBFD08208DE85100A1
:1017800069462846FEF7B4FD002211462620FEF7E2
:1017900017FF2620FEF708FF05B0F0BD0038014016
:1017A00000100240000801400044004090F83A3028
:1017B000202B22D1F9B1F2B190F83830012B1CD096
:1017C00081628285C2850021C163222280F83A208D
:1017D00080F838100168CA6842F48072CA600168F3
:1017E0004A6942F001024A610068C16841F0200183
:1017F000C160002070470120704702207047704789
:101800007047FEE770B5D0F81842054694F8180204
:1018100040B9D4F8140228B1607A18B901212846D9
:1018200001F076FD8121284601F072FD607A0228E0
:1018300008D104F503722846BDE870401F2301213A
:1018400001F0E5BC70BD000070B5D0F81842064646
:101850000121D4F81002C4F83002D4F81402C4F8FC
:101860003402304601F074FC1F280DD12849D4F809
:101870000C02884208D194F81912012904D894F86E
:101880001A0208B1102809D994F819122023052248
:10189000304600F0DAFD0220607209E004F21B22FB
:1018A000304600F0A3FB0028207A08DA052804D08F
:1018B0003046BDE87040FFF7A5BF012121E00228B6
:1018C00024D0012822D0032820D06189C9B1D6F8BC
:1018D0001852304604F10C02D5F814328B4200D273
:1018E00019468BB2D5F83412C91AC5F83412002142
:1018F00085F8381204212972BDE87040812101F079
:1019000030BD3046BDE8704000F084B870BD0000C6
:101910005553424310B5D0F81842627A022A08D0D3
:1019200009060BD5012A09D0BDE81040012100F0BD
:1019300071B8812101F0ECFC0020607210BD10B57F
:10194000D0F818220446107A022805D0032801D0C6
:10195000042810D1002109E092F81912204602F261
:101960001B2200F043FB002805DA01212046BDE8D8
:10197000104000F04FB810BD10B5D0F81822044642
:10198000107A80B1012813D192F81912204602F280
:101990001B2200F02BFB00280ADA2046BDE810408D
:1019A000012100F037B82046BDE81040FFF74CBFDA
:1019B00010BDD0F8180200210172704770B5D0F840
:1019C0001842002105462172617284F85D1284F884
:1019D0005C12D0F81C0201680020884701212846CB
:1019E00001F0A6FB8121284601F0A2FB04F5037259
:1019F0002846BDE870401F23012101F008BCD0F843
:101A0000182200211172012151721F2302F5037265
:101A100001F0FDBB70B5D0F8184205460B48C4F87C
:101A20002C0284F83812002020720D2304F50B726A
:101A30008121284601F095FC04F503722846BDE893
:101A400070401F23012101F0E2BB000055534253B7
:101A500010B504490448FEF7C9FB0249491E087045
:101A600010BD00002D000020180000202DE9F047D7
:101A700086B0002432480094019402940394816952
:101A800041F010018161816901F0100104918169C7
:101A900041F020018161816901F020010491816997
:101AA00041F004018161816901F0040104918169BF
:101AB00041F0080181618069DFF8889000F008003A
:101AC0004FF400550490002229464846FEF7EEFCEC
:101AD000DFF874A045F22008002241465046FEF788
:101AE000E5FC0227012603970095CDE901646946CC
:101AF0004846FEF7FDFB4FF440400325CDE90005C5
:101B000069464846FEF7F4FB48F2F310CDE90005BC
:101B100069460E48FEF7ECFB40F6DF70CDE90005A4
:101B200069465046FEF7E4FBCDF800800397CDE907
:101B3000016469465046FEF7DBFB06B0BDE8F0875E
:101B40000010024000100140000C0140000801405C
:101B5000104810B50E4901604FF4827141604FF496
:101B6000004181600021C1604FF400720161C0E951
:101B70000512C1610162416281620A21C162FFF7FF
:101B8000DFFA002803D0BDE81040FEF72EBB10BDE1
:101B900000380040840200200C4810B50A4901605A
:101BA0004FF4E1314160002181600C22C160C0E945
:101BB00004128161C161FFF75DFD002803D0BDE81B
:101BC0001040FEF712BB10BD00380140DC020020BF
:101BD0000C4810B50A4901604FF4E1314160002121
:101BE00081600C22C160C0E904128161C161FFF70C
:101BF00041FD002803D0BDE81040FEF7F6BA10BD45
:101C0000004400401C03002010B500220849094888
:101C100001F0CFF90849074801F08FFC0749054852
:101C200001F011FCBDE81040024801F0D3BC0000F7
:101C3000340000205C0300209C000020680000208D
:101C4000FEE770470907090E002806DA00F00F00CA
:101C500000F1E02080F8141D704700F1E02080F8CA
:101C6000001470472DE9FC5F4FF000080446ADF802
:101C70000480ADF8008048F60F7B4FF002094FF466
:101C8000806692E1BDF8041011F00F072BD030F8F8
:101C90002710ADF80010BDF80010090478D530F811
:101CA000272040F68F710A4020F8272004EB4715C3
:101CB00095F8320205F50A750028206869D0297860
:101CC00030F8212052047DD5B0F8503009EBC10125
:101CD000194406EB4101415AC1F309015FEA010AC7
:101CE00071D0EA88D0E0BDF80410C9062AD4018872
:101CF00001EA0B010180206804F12805B0F85020AA
:101D00002B7809EBC301114406EB4101405AC0F3A3
:101D100009006064E16B0844E06300212046FEF79F
:101D20009CFC94F824000028ABD0A8690028A8D116
:101D300094F82400216840F08000A1F84C0084F859
:101D4000248032E1018804F50A75ADF80010BDF871
:101D5000001009051ED5B0F850302978062202EB94
:101D6000C101194406EB4101405A04F22C41C0F371
:101D70000903EB61AA88206802F05AF820680188FC
:101D800040F68F72114001802046FEF782FE0CE182
:101D9000A0E055E0BDF800100904D2D5028840F655
:101DA0008F710A4002802068B0F8503029780622EE
:101DB00002EBC101194406EB4101405A83059B0D1A
:101DC000EB6101E051E063E008D0AA88696920680E
:101DD00002F02EF8E969686908446861002120462C
:101DE000FEF742FC2068B0F85010891D06EB410157
:101DF000014428693E280CD9C0F34F12C00601D116
:101E0000521E92B24FF6FF7000EA822040F400406A
:101E100009E0C0F34F02C00701D0521C92B24FF646
:101E2000FF7000EA82200860216808884BF68F72F4
:101E3000104080F4405048F2800210430880B4E023
:101E4000B0F850202B78062101EBC301114406EBBA
:101E50004101415AC1F309015FEA010A24D0AA886D
:101E60005346696901F0E4FF1EE0B0F850200623F4
:101E700003EBC101114406EB4101415AC1F30901D1
:101E80005FEA010A04D02A895346696901F0D0FF4C
:101E90002978206830F8213048F68F72134048F2D4
:101EA000C002134320F82130E96901EB0A00E86120
:101EB000696901EB0A026A61AB6913B1286950458F
:101EC00004D929782046FEF7CFFB03E02978204685
:101ED000FEF75AFCBDF80000000666D5206804EB4A
:101EE000471530F8271001EA0B0120F8271095F864
:101EF000320028350028206812D0297830F82120B7
:101F0000B0F8503052061ED509EBC101194406EB5A
:101F10004101405A83059B0DEB6124D0EA881EE005
:101F2000B0F850302A7809EBC201194406EB4101A0
:101F3000405A83059B0DEB6121D0AA88696920680E
:101F400001F08DFF1BE0062202EBC101194406EBF4
:101F50004101405A83059B0DEB6104D02A896969D0
:101F6000206801F07CFF2978206830F8212048F6AD
:101F70008F731A404CF280031A4320F82120206806
:101F8000B0F850202B7809EBC301114406EB410156
:101F9000405AC0F30900E86169690A186A61297842
:101FA000AB69204663B1FEF731FC2068B0F84410FD
:101FB000ADF8041009043FF565AE0020BDE8FC9FB4
:101FC000FEF74BFBF1E7704710B5D0F818421A4402
:101FD000D4F860329A4206D92123052200F035FA5E
:101FE0004FF0FF3010BD002010BD00002DE9F04182
:101FF000137800244FF0FF35232B73D00DDC1A2B00
:1020000071D005DCBBB1032B36D0122B11D160E0AF
:102010001B2B01D01E2B0CD181E02A2B73D004DCAA
:10202000252B71D0282B04D1A1E02F2B6DD05A2B5A
:102030006CD02023A9E0D0F8187206468846D7F85D
:10204000140240B197F81912202305224FEA060026
:1020500000F0FBF9A4E0D6F81C02816840468847EE
:1020600040B13A2302224146304600F0EEF9052005
:10207000387295E07C8197E0D0F818120023C818D8
:102080005B1CDBB20473122BF9D3702008730C2095
:10209000C87491F85C3291F85D02834212D001EB72
:1020A000C3005B1C90F83C528D7390F841520D7642
:1020B00090F840024876D8B281F85C02042801D139
:1020C00081F85C4212204881107912286CD848812E
:1020D0006AE05578D0F81832ED0705D0072033496B
:1020E000588114E03BE01EE0D0F81C0201EBC10176
:1020F0001279C06900EB81010879401D824200D845
:102100001046588108E036E02DE038E019E0401E26
:1021100080B21D180A5C2A730028F8D144E0D0F878
:102120001802448140E0D0F818120820204A488163
:10213000401E0004000C01EB0005135C2B73F7D16B
:1021400032E0D0F8180208211A4A4181491E0904D8
:10215000090C00EB0105535C2B73F7D124E0BDE8BB
:10216000F04100F03BB9BDE8F04100F00CB9BDE82A
:10217000F04100F0B3B8BDE8F04100F081B9527809
:10218000D0F81862920702D52423052260E7B6F83A
:10219000682293B2D6F86422FFF716FF002802DA0D
:1021A0002846BDE8F08174812046FAE7BB4C000860
:1021B000C24C0008CA4C00082DE9F041D0F8184282
:1021C00006464FF40070D4F868520F46854200D39B
:1021D0000546B4F85E02B5FBF0F18BB2D4F8641298
:1021E000B1FBF0F2D6F81C0204F10C018846D0F8DD
:1021F00010C03846E047002809DA11230422394686
:10220000304600F022F94FF0FF30BDE8F081ABB26C
:1022100042468121304601F0A4F8D4F864022844F3
:10222000C4F86402D4F86802401BC4F86802D4F809
:102230003412A1EB0501C4F8341201D1032020723D
:102240000020E2E72DE9F047D0F818424FF400767D
:102250008846D4F868520746B54200D33546B4F8EC
:102260005E02B5FBF0F18BB2D4F86412B1FBF0F270
:10227000D7F81C0204F10C018946D0F814C040467E
:10228000E047002809DA032304224146384600F0DB
:10229000DCF84FF0FF30BDE8F087D4F86402284442
:1022A000C4F86402D4F86802401BC4F86802D4F889
:1022B0003412A1EB0501C4F834120AD0B04200D3A5
:1022C000304683B24A460121384600F0A0FF002084
:1022D000E1E700213846FFF79DFBF8E72DE9F041E3
:1022E000D0F8184205461746207A8846F0BB94F885
:1022F00018024FF0FF36000635D5D5F81C0281686C
:102300004046884730B13A2302224146284600F031
:102310009CF813E0D7F80200414600BA20F0FF0213
:1023200078790243C4F86422B7F8070043BA284614
:10233000C4F86832FFF748FE002802DA3046BDE8EC
:10234000F08102202072B4F85E12D4F8640248438F
:10235000C4F86402D4F868024843C4F86802D4F8A8
:102360001412814206D094F8191200E002E02023F2
:102370000522CBE74FF40070608141462846BDE856
:10238000F041FFF719BF70B505460E46D5E9864006
:1023900004F25E224368911C3046984740B13A23CC
:1023A00002223146284600F050F84FF0FF3070BD51
:1023B000D4F86002401E010E2173010C6173010A02
:1023C000A173E073002020746074B4F85E02010A07
:1023D000A174E07408206081002070BD2DE9FC41EB
:1023E0000546D0F8184200200F4606462118401C2A
:1023F00080B20E730C28F9D3D5F81C026A4601A9E5
:1024000043683846984748B13A230222394628465D
:1024100000F01BF84FF0FF30BDE8FC810820E073AE
:102420000198401E010E2174010C6174010AA1740F
:10243000E074022020756675BDF80000010AA175E0
:10244000E0750C2060810020E6E7D0F8180290F8D3
:102450005D1200EBC10181F83C2290F85D22190267
:1024600000EBC202C2F8401290F85D12491CC9B2DA
:1024700080F85D12042902D1002180F85D127047B6
:102480002DE9F041D0F8184205461746207A8846D3
:1024900020B12846BDE8F041FFF7D4BE94F81802F9
:1024A0004FF0FF3600063CD4D5F81C028168404648
:1024B000884728B13A230AE02846FFF7C6FF1DE007
:1024C000D5F81C02C1684046884718B1272302226C
:1024D0004146F1E7D7F80200414600BA20F0FF027A
:1024E00078790243C4F86422B7F8070043BA284653
:1024F000C4F86832FFF768FD002802DA3046BDE80C
:10250000F081B4F85E02D4F864124143C4F8641256
:10251000D4F868124143C4F86812D4F8140288420F
:1025200004D0202394F819120522C5E70120207257
:102530004002814200D301468BB204F10C0201211A
:10254000284600F064FE0020D9E738B50B4600921B
:1025500004460022802100F008F8002804D0606DB5
:1025600040F020006065032038BD2DE9F0411D4694
:1025700017460E460446DDF8188035E0681C33D057
:102580002DB1FDF799FFA0EB0800A8422CD32068DD
:10259000416821F0E00141606068B0F5827F0BD1B5
:1025A000A068B0F5004F02D0B0F5806F04D120686C
:1025B000016821F040010160A06AB0F5005F0AD116
:1025C000206801684DF6FF721140016020680168C3
:1025D00041F400510160012084F85100002084F88A
:1025E00050000320BDE8F0812068806836EA0000D2
:1025F00004D00020B842C1D10020F3E70120F9E760
:10260000F8B516460C460546A02816D2802C14D2E2
:1026100000F0B4F8601CC3B2681CC2B2E1B2E8B208
:1026200000F0B4F8300A8DF800008DF80160022146
:10263000684600F02FF900F0CBF8F8BD2DE9F04125
:1026400010F8015B04461AE0207800F011F9607878
:10265000A41C00F0800730F0800604D031462046EC
:1026600000F018F934443846FDF730FE3FB114F855
:10267000010BFF2801D14FF4FA70FDF727FE6D1E04
:10268000EDB2E1D2BDE8F0812DE9F8431F46DDF857
:10269000208014460D460646A0283BD2802D39D214
:1026A0003019401EA02802DBC6F1A00084B2E81950
:1026B000401E802802DBC5F1800087B200F05EF882
:1026C000E819401EC3B23019401EC2B2E9B2F0B2DE
:1026D00000F05CF84FEA18208DF800008DF80180BA
:1026E000012202210C48FDF7E1FE4FF0FF360DE01C
:1026F000254607E03346022269460848FEF792FD68
:102700006D1EADB2002DF5D17F1EBFB2002FEFD1EF
:1027100000F05EF8BDE8F883000C01408402002060
:1027200008B5002100908023A0220846FFF7ACFFE7
:1027300008BD000010B500F021F80E4C00228021E9
:102740002046FDF7B3FE0520FDF7C0FD01228021E4
:102750002046FDF7ABFE0848FFF770FF06483B3008
:10276000FFF76CFF04484830FFF768FFBDE81040F2
:1027700000F02EB8000801400C4C00080022012196
:102780000148FDF793BE0000000C0140F8B5074674
:102790001C4615460E462A2000F06AF800200090DC
:1027A0008DF801708DF803500421684600F072F82E
:1027B0002B2000F05DF88DF801608DF803400421B6
:1027C000684600F067F82C2000F052F8F8BD0000D1
:1027D000012211460148FDF769BE0000000C0140CE
:1027E0000FB42DE9FF5F4A1EC3F307263244D4B26B
:1027F000DFB2421EDDE913A93A44D2B2C9B2C0B277
:102800002346FFF7C3FF00252CE0109812992038CB
:1028100000FB0650002431F810804FEA1A20029085
:102820000AF0FF0001904FEA192009F0FF0B009019
:1028300015E000BF08FA04F0000406D502988DF8F0
:102840000C0001988DF80D0004E000988DF80C0044
:102850008DF80DB0022103A800F01CF8641CA742FB
:10286000E8D86D1CAE42D0D8BDE8FF1F5DF814FB60
:1028700001B5002202210548FDF718FE4FF0FF3395
:10288000012269460248FEF7CDFC08BD000C01405C
:102890008402002070B50D4604460122022106483C
:1028A000FDF704FEAAB22146BDE870404FF0FF33A9
:1028B0000248FEF7B7BC0000000C01408402002073
:1028C0002DE9FE4F9846DDE90DA914460E46054652
:1028D000DDF830B0FFF752FF08F0FF0718E0781975
:1028E000A02809D3C8F3072081198EB200253044EF
:1028F000802810D2202A0AD0CDF800B0CDE901A955
:10290000434631462846FFF76BFF781985B2641CB1
:102910002278002AE3D1BDE8FE4FFFF759BF4FF4FC
:1029200080300860C0111080002070470020704780
:10293000002070470020704700207047002070473B
:10294000002070477047704730B593B02821684623
:10295000FDF701FC14210AA8FDF7FDFB002401206E
:102960000F9410941194010412948DE813000490B4
:102970004FF4E010CDE90810022507956846FEF7F0
:102980005DFA0F20CDE90A056802CDE90C4002216D
:102990000AA80E94FEF726F910200F9012940FA8A3
:1029A000FEF7AAF813B030BD0D48016841F00101EF
:1029B000016041680B4A1140416001680A4A1140B8
:1029C0000160016821F480210160416821F4FE0169
:1029D00041604FF41F0181600449C00308607047E3
:1029E000001002400000FFF8FFFFF6FE08ED00E0D7
:1029F0000148FEF7F6BC0000500E0020F0B502685A
:102A0000164B174C174D4FF08047984205D0B842EF
:102A100003D0A04201D0A84203D122F070064A6838
:102A20003243984205D0B84203D0A04201D0A84218
:102A300003D122F44074CA68224322F080044A6918
:102A4000224302608A68C2620A688262984201D1A7
:102A50000969016301214161F0BD0000002C0140C2
:102A6000000400400008004010B5406A0021C18504
:102A7000C184FEF776FD10BD0168CA6822F4907229
:102A8000CA6001684A6922F001024A61202180F887
:102A90003A10704710B590F83A10222901D0022060
:102AA00010BD8168B1F5805F11D00169002901680E
:102AB0001FD0496801F07F03816A4A1C82620B7053
:102AC000C18D491E0904090CC18518D02BE002698B
:102AD000816A002A0268526805D0D2B20A80816AEF
:102AE000491C8162ECE7C2F308020A80816A891CF2
:102AF000F7E74A68816A4B1C83620A70E0E7016865
:102B0000CA6822F02002CA600168CA6822F4807292
:102B1000CA6001684A6922F001024A61202180F8F6
:102B20003A10FEF76CFE002010BD00002DE9F041C8
:102B3000044600680169E26821F4405111430161D3
:102B40002169A0680843616908432168CA6841F2A5
:102B50000C639A430243CA6020684169A26921F468
:102B60004071114341614C492068642532268842F6
:102B70003CD1FEF71DF900EBC00101EB00106168CC
:102B80008900B0FBF1F7FEF713F900EBC00101EB90
:102B900000106168B0468900B0FBF1F0B0FBF5F0C1
:102BA0006FF01801484307EB800106EB0110B0FB02
:102BB000F5F000F0F006FEF7FBF800EBC00101EBCA
:102BC000001061688900B0FBF1F0B0FBF5F006EB96
:102BD0000016FEF7EDF800EBC00101EB0010616894
:102BE0008900B0FBF1F7FEF7E3F83BE0FEF7D0F821
:102BF00000EBC00101EB001061688900B0FBF1F748
:102C0000FEF7C6F800EBC00101EB00106168B046AA
:102C10008900B0FBF1F0B0FBF5F06FF0180148430C
:102C200007EB800106EB0110B0FBF5F000F0F006B9
:102C3000FEF7AEF800EBC00101EB001061688900FF
:102C4000B0FBF1F0B0FBF5F006EB0016FEF7A0F8D4
:102C500000EBC00101EB001061688900B0FBF1F7E7
:102C6000FEF796F800EBC00101EB001061688900E7
:102C7000B0FBF1F0B0FBF5F06FF01801484307EB43
:102C8000800108EB0110B0FBF5F0216800F00F00A7
:102C900030448860BDE8F0810038014090F8391078
:102CA000212901D0022070478168B1F5805F016A57
:102CB0000BD04A1C0262026809785160C18C491E1F
:102CC0000904090CC1840ED017E009880268C1F319
:102CD0000801516001690029016A02D0491C0162A2
:102CE000ECE7891CFBE70168CA6822F08002CA6031
:102CF0000068C16841F04001C160002070470000D9
:102D000010B50448FEF72EFCBDE81040014801F064
:102D100055B90000DC02002010B50448FEF722FC83
:102D2000BDE81040014801F049B900001C03002033
:102D300010B5D0F8142252689047002010BD1346F9
:102D400010B50A46002100F062FA002010BD1346BB
:102D500010B50A46002100F004FB002010BD10B59C
:102D60000446802100F0D4FA2046BDE8104000213E
:102D700000F0CEBA10B505210023C0F8F4111A46B0
:102D8000194600F044FA002010BD10B502238261FC
:102D9000C0F8F431C26113460A46002100F0E1FA9E
:102DA000002010BD10B504210023C0F8F4111A460C
:102DB000194600F0D6FA002010BD000010B50A46F2
:102DC000024903A000F0D2F8004810BD500C0020CA
:102DD0004D534320436F6E666967000012200880E0
:102DE000004870475400002010B50A46024903A06D
:102DF00000F0BCF8004810BD500C00204D5343209B
:102E0000496E746572666163650000000420088085
:102E1000004870475000002010B50A46024903A040
:102E200000F0A4F8004810BD500C002053544D6928
:102E300063726F656C656374726F6E6963730000B3
:102E400010B50A46024903A000F090F8004810BDF2
:102E5000500C002053544D3332204D617373205376
:102E6000746F72616765000010B50A46024903A0DD
:102E700000F07CF8004810BD500C0020303030309D
:102E8000303030303030314100000000F8B50446B9
:102E900048880D46010A08294BD2DFE801F04A04B0
:102EA00009174A4A4048D4F81012207C0A6832E0D8
:102EB000207C02260028D4F8140205D0C16A684696
:102EC00088470146467041E0816AF8E7C0B20628AB
:102ED0002FD2DFE800F003080D12171CD4F81012EF
:102EE000207C4A6817E0D4F81012207C8A6812E02F
:102EF000D4F81012207CCA680DE0D4F81012207C9F
:102F00000A6908E0D4F81012207C4A6903E0D4F87A
:102F10001012207C8A6969469047014616E0207CA1
:102F200038B9D4F81402416B68468847F5E7207C2D
:102F300020B129462046FFF712FFF8BDD4F814024D
:102F4000016B68468847014607204870BDF80000BD
:102F50000028F2D0EA88002AEFD0824200D9024647
:102F6000ADF800202046FFF710FFF8BD70B5002334
:102F700000281DD00446002502E06D1CEDB2641C43
:102F80002678002EF9D1022404EB45041480CC5499
:102F90005B1C0322CA5400245B1C06E0CA545B1C61
:102FA000DAB28C54521CD3B2401C0278002AF5D1FC
:102FB00070BD10B580B1D0F8143213B10023C0F841
:102FC000143209B1C0F81012012180F8FC1102700E
:102FD00000F0C2F8002010BD022010BD10B5002482
:102FE000D0F82002FDF768FB30B1012801D002289B
:102FF00001D0022400E00124204610BD10B50024B9
:10300000D0F82002FDF738FB30B1012801D00228AA
:1030100001D0022400E00124204610BD2DE9F0413A
:103020001746044641B1D4F8140242698AB394F8B1
:10303000FC01032842D043E0D4F8F411002504F148
:103040001400022933D1D0E902639E4207D9F31A52
:1030500083609AB239462046FFF779FE12E0406855
:10306000B0FBF3F103FB1101A1B9984212D3D4F8DC
:10307000F81188420ED2002211462046FFF767FE63
:10308000C4F8F85100231A461946204600F0BFF84C
:103090000DE012E0D4F81402C16829B194F8FC01E3
:1030A000032801D1204688472046FFF763FE94F8A5
:1030B0000002012804D184F8005201E02046904724
:1030C0000020BDE8F08170B51546044641B1D4F842
:1030D000140282693AB394F8FC01032824D025E055
:1030E000D4F8F41104F5827003291FD1D0E902212C
:1030F0008A420BD9531A83600846834200D30346A1
:103100009AB229462046FFF71AFE0FE0D4F81402BF
:10311000016929B194F8FC01032801D120468847B0
:103120002046FFF73FFE01E020469047002070BD9B
:1031300010B50024D0F82002FDF7E2FA30B10128E2
:1031400001D0022801D0022400E00124204610BD55
:10315000D0F82002FDF7EEBA10B51A490446C1F8BE
:103160005C04C0F82012184808600820486002205B
:1031700088600320C86000208861C8610862084632
:10318000FDF7E0FB08B1FDF730F80022D4F820028B
:103190001823114604F50874FDF744FA5823002259
:1031A00080212068FDF73EFA9823002281212068C3
:1031B000FDF738FAD823002201212068FDF732FA02
:1031C000002010BDF0070020005C00400A06D0F887
:1031D000200201F07F0100EB411002D590F82A0097
:1031E000704790F82A02704770B51D4613460024B8
:1031F000D0F820022A46FDF7A5FA30B1012801D007
:10320000022801D0022400E00124204670BD10B540
:103210000024D0F82002FDF7B7FA30B1012801D020
:10322000022801D0022400E00124204610BD70B520
:103230000022044640231146FFF7D6FF40252B46C7
:10324000002280212046C4F81051FFF7CDFF012055
:10325000256284F8FC01D4F8180228B1D4F81402CD
:103260002179426820469047002070BD90F8FD11FA
:1032700080F8FC110020704710B590F8FC1103296C
:1032800004D1D0F81412C96901B18847002010BDDB
:1032900001740020704710B50024D0F82002FDF71B
:1032A000E4FB30B1012801D0022801D0022400E063
:1032B0000124204610BD70B5044600F50270054695
:1032C00000F027F90120C4F8F401B4F80E02C4F8A4
:1032D000F80194F8080210F01F010AD001290DD05E
:1032E000022910D000F08001204600F011F80020E3
:1032F00070BD2946204600F072F9F8E729462046BD
:1033000000F054FAF3E72946204600F0E1F9EEE731
:1033100010B50024D0F82002FDF74DFA30B1012895
:1033200001D0022801D0022400E00124204610BD73
:1033300010B50024D0F82002FDF7B2FB30B101280F
:1033400001D0022801D0022400E00124204610BD53
:1033500090F8FC1180F8FD11042180F8FC11002088
:10336000704710B50024D0F82002FDF74FFA30B1B5
:10337000012801D0022801D0022400E001242046C7
:1033800010BD10B5FEF7DBFA002010BD10B5FEF73A
:10339000F3FA002010BD10B504460121FFF72EFE00
:1033A00081212046FFF72AFE2046FEF702FBD4F8D3
:1033B000180220B100F014FA0020C4F8180200200E
:1033C00010BD00000A210180004870473401002030
:1033D0002021018000487047F40000202021018056
:1033E00000487047D4000020202101800048704729
:1033F0001401002070B50546007C0024B8B14023BC
:10340000022201212846FFF7EFFE402302228121FC
:103410002846FFF7E9FE4FF41B7000F0E3F9C5F80A
:10342000180270B12846FEF7C9FA204670BD4FF465
:1034300000763346022201212846FFF7D5FE3346A7
:10344000E4E70124F1E709B1C0F81C12002070473D
:1034500070B50646D0F8185208780C4610F0600196
:1034600026D0202953D16178FE2902D0FF2919D115
:103470000EE06188B1B9E188012913D1000611D5A8
:10348000D6F81C028069804701222946286019E08D
:10349000618839B9E18829B9000603D43046FEF7BE
:1034A000AEFA34E021463046FFF759FC022070BDE9
:1034B000607801280DD00A2802D00B2827D105E01A
:1034C0000122291D3046FFF760FC20E0A0786860EB
:1034D0001DE021793046FFF72BFE21793046FFF7BA
:1034E0008DFD20794FF400730006307C04D500B1C7
:1034F00040230222812103E000B140230222012166
:103500003046FFF771FE21793046FEF703FA0020BE
:1035100070BD0A7802704A7842708A78CB7802EBE4
:10352000032242800A794B7902EB032282808A7956
:10353000C97902EB0121C18070470246002011B118
:10354000C2F8141270470220704710B5D0F8142248
:1035500002241AB11268904700B90024204610BD19
:1035600070B50E461A4D897804462970012928D86D
:1035700094F8FC01022802D0032822D105E099B179
:103580000320616084F8FC0109E091B16068884221
:103590000AD0C1B22046FFF7CBFB297861602046F4
:1035A000FFF7D3FF02280CD02046BDE87040FFF79C
:1035B000F9BB022084F8FC0120466160FFF7B8FBEC
:1035C000F2E731462046BDE87040FFF7C8BB000077
:1035D0009800002010B5FFF7ABFE002010BD2DE9CC
:1035E000F04100264B78012532460A2B43D2DFE812
:1035F00003F03C584251420805422A27FFF746FC97
:1036000063E004468888C8B9C888B8B9887800F0EB
:103610007F0794F8FC01032810D084F8FE71394626
:103620002046FFF738FE2046FFF7BCFB1FB1022003
:1036300084F8FC0149E084F8FC5146E020461AE099
:10364000FFF78EFF41E0CB88012B14D190F8FC31BD
:10365000022B02D0032B0ED104E08260012200F184
:10366000080114E00122011D11E090F8FC21022A5A
:1036700004D0032A02D0FFF772FB26E0C560D0F821
:10368000041209B10321C160022200F10C01FFF70D
:103690007CFB1AE004464888012816D1C4F804527D
:1036A0000BE0044690F8FC01022801D00328C5D1A4
:1036B0004888012809D1C4F80422D4F81402826889
:1036C000204690472046FFF76DFB3046BDE8F0816D
:1036D00070B50D460446287800260979C0F34110DC
:1036E000012806D06878A0B301281FD003283FD155
:1036F00007E0D4F81402294682682046904700204B
:1037000070BD94F8FC01022817D003282CD16888DA
:1037100028B921B1802902D02046FFF7F9FDD4F85D
:103720001402294682682046904713E094F8FC0171
:10373000022802D0032817D103E0C9B180291BD188
:1037400016E06888A0B9480604D02046FFF746FC7A
:10375000E5E703E02046FFF725FB09E094F8FC01CC
:10376000022807D003280BD029462046FFF7F7FA96
:10377000304670BD4806FBD02046FFF7C9FDF7E78D
:10378000080601F07F0004EB001501D5143501E0B7
:1037900005F582752046FFF719FD00B1012028606C
:1037A000022229462046FFF7F0FAE1E770B5054608
:1037B00090F8FC010C4603280DD1207901280AD885
:1037C000D5F81402826828469047E08830B9284628
:1037D000FFF7E8FA02E02846FFF7C1FA002070BDC3
:1037E0007047000000487047800500202DE9F04731
:1037F000CC780A7848F68F1334B1012C6DD0022CA6
:1038000008D0032C13D10BE030F822401C4044F4C4
:1038100000730AE030F822401C4020F8224006E005
:1038200030F822401C4044F4C06320F822300C7869
:1038300030F8245048F68F72154048F280031D433B
:10384000254320F824508D7A48F6BF7904274BF69B
:103850008F7A48F2C0044CF28006EDB30D7830F850
:1038600025C048F280180CEA020C4CEA080C20F83B
:1038700025C0CD88B0F850C025F0010591F8008032
:103880000CEBC80C00EB4C0CCCF800540D89B0F8D4
:1038900050C025F0010591F8008007EBC807674488
:1038A00000EB4707C7F800544D78002D0D7830F82D
:1038B00025704FEA47477DD0002F05DA30F8257094
:1038C0001740374320F825700D7830F825707F06B3
:1038D00008D530F8257001E024E01DE017402743AB
:1038E00020F825700C7830F824501540354320F826
:1038F00024500C7830F8242002EA09021A4320F8F8
:1039000024200A7830F8221001EA0A01194320F82D
:1039100022100020BDE8F08730F822401C4044F41B
:10392000806382E74D78F5B18D88B0F8506025F05E
:1039300001050F7806EBC70600EB4606C6F80054F3
:103940000D7830F82560760605D530F825601640EC
:10395000264320F825600A7830F8221001EA090190
:1039600081F02001D2E78C88B0F8505024F0010497
:1039700091F800C007EBCC073D4400EB4505C5F8C6
:103980000044B0F850400D78062707EBC5052C44DD
:1039900000EB44070C694FF6FF7C07F580673E2C6F
:1039A0000CD9C4F34F15E40601D16D1EADB20CEA7B
:1039B000852400E01EE044F4004407E0C4F34F0512
:1039C000E40701D06D1CADB20CEA85243C600C7894
:1039D00030F824506D0405D530F824501540354397
:1039E00020F824500A7830F8221001EA0A0181F404
:1039F00040518BE7002F05DA30F825701740374328
:103A000020F825700D7830F82560760605D530F859
:103A100025601640264320F825600E7830F82650A1
:103A20001540254320F826500C7830F8242002EA6F
:103A30000A0282F440521A4320F824200A7830F80F
:103A4000221001EA090161E7002070472DE9F043E7
:103A500091F80A8091F801C00A7848F6BF774BF6D2
:103A60008F7948F2800348F2C0054CF2800648F690
:103A70008F74B8F1000F2ED0BCF1000F30F822C0C7
:103A80004FEA4C4C4ED0BCF1000F07DA30F822C0A0
:103A90000CEA040C4CEA060C20F822C00A7830F834
:103AA00022C05FEA4C6C07D530F822C00CEA040C47
:103AB0004CEA050C20F822C00A7830F82250254044
:103AC000354320F822500C7830F824203A401A432D
:103AD00020F824201BE0BCF1000F0ED030F822604B
:103AE000760605D530F8226026402E4320F8226065
:103AF0000A7830F8221039400EE030F822506D0478
:103B000005D530F822502540354320F822500A7858
:103B100030F8221001EA0901194320F82210002090
:103B2000BDE8F083BCF1000F07DA30F822C00CEAE0
:103B3000040C4CEA060C20F822C00A7830F8226007
:103B4000760605D530F8226026402E4320F8226004
:103B50000E7830F8262022402A4320F826200C78C0
:103B600030F8242002EA09021A4320F82420BFE793
:103B7000002070470020704700B50121A0F84010D8
:103B80000021A0F84010A0F84410A0F8501000F058
:103B90003AF9002000BD30F8401F21F43D4101807A
:103BA000002070470020704730B54D780A78002D0E
:103BB00048F68F7430F8225048F2800312D06D0618
:103BC00007D530F82250254048F2C004254320F89C
:103BD00022500A7830F8221048F6BF74214081F054
:103BE000300111E06D0407D530F8225025404CF229
:103BF0008004254320F822500A7830F822104BF632
:103C00008F74214081F44051194320F82210002084
:103C100030BD10B50A7848F2800352B149780029C6
:103C200030F8221010D048F6BF74214081F0100106
:103C30000FE001884BF6BF72114081F4805181F092
:103C400010011943018007E04BF68F74214081F485
:103C50008051194320F82210002010BD2DE9F041B9
:103C60000D460646896995F801C00023AA7A022705
:103C700028690C4648F28008BCF1010F05D081424A
:103C800052D90446081AA8614FE0814203D904467C
:103C9000081AA86100E0AB617AB1287836F82010E4
:103CA0004906B6F8501007EBC000084406EB400088
:103CB000C0F8004412D52A8911E0A3B2AA88304680
:103CC000696900F0CCF8B6F85000297807EBC1011B
:103CD000084406EB4000C0F800441CE0EA88A3B2A8
:103CE0003046696900F0BBF8687848F68F7110B10A
:103CF000012807D00FE0287836F820200A4048F243
:103D0000C00105E0287836F820200A404CF28001F6
:103D10000A4326F82020297836F8210048F6BF7299
:103D2000104080F0300067E0AB6106234FF6FF7073
:103D30001AB1BCF1000F1BD056E0B6F850102A782B
:103D40003E2C03EBC202114406EB410202F58062F5
:103D500039D9C4F34F11E30632D000BF00EA812005
:103D600040F4004002E000BF00EA812010603BE028
:103D7000B6F850102A783E2C07EBC202114406EB2D
:103D8000410202F580620BD9C4F34F115FEAC46CA3
:103D900001D1491E89B200EA812141F4004108E0C5
:103DA000C4F34F015FEAC47C01D0491C89B200EA28
:103DB0008121116069780029BFD001290AD013E060
:103DC000491E89B2CAE7C4F34F01E307CCD0491CAE
:103DD00089B2C9E7B6F85000297807EBC101084459
:103DE00006EB4000C0F80044297836F821004BF675
:103DF0008F72104080F4405040EA080026F82100FD
:103E00000020BDE8F08130F8401F41F43F410180BF
:103E10000020704700207047002070470148FCF7E1
:103E20000ABD0000F0070020B0F844007047000011
:103E30005B1C00EB42005B0800F5806006D000BF11
:103E400030F8042B21F8022B5B1EF9D170470020BB
:103E5000704711B98021A0F84C100020704710B5B0
:103E60005B1C00EB42005B0800F5806009D011F894
:103E7000012B5B1E11F8014B42EA042220F8042BAF
:103E8000F5D110BD02480121017000787047000093
:103E900014000020012070470020704702480121D3
:103EA0000170007870470000140000200020704767
:103EB000FEE702E008C8121F08C1002AFAD17047C5
:103EC0007047002001E001C1121F002AFBD170479A
:103ED000FEB5FEF72FFC0020FEF722FC00244FF475
:103EE0007845A0B22A464021FEF78AFB641CA02C2C
:103EF000F7DB00254FF4FC660E4CCDE901656068E8
:103F000000900DA2362128462368FEF7D9FCCDE9A2
:103F100001656068009009A2762100202368FEF701
:103F2000CFFC0020064920220A54401C1628FBDB47
:103F30000D54FEBD00000020323E0000313E000066
:103F40006C020020FCF7C6FAFEF7FEFCFDF78EFDC2
:103F5000FDF722FEFDF73CFEFDF7FAFDFDF778FDCB
:103F6000FDF752FE114D4FF4005400222146284621
:103F7000FCF79CFA4FF4FA763046FCF7A7F90122D9
:103F800021462846FCF792FA3046FCF79FF9FFF7E6
:103F90009FFF012206490748FDF708FC044901225A
:103FA000491C0548FDF702FCFEE700000010014037
:103FB00012000020DC0200201C0300202DE9FE4F2F
:103FC0000068FC49DFF8F083DFF8F09300244FF439
:103FD000FC6A88427ED10122F949FA48FDF7E6FBE6
:103FE000F74808F10601F84D007808700A281ED03D
:103FF0000D281CD0297E162924D298F80420464684
:10400000A854287E401C2876CDE901A4D9F80400E4
:104010000090C2EBC200B21D98F80210D9F800302F
:10402000FEF74EFC3079401CC0B2307129E1297E88
:10403000162907D26C54297E162903D20A2801D0EA
:104040000D287CD10426AB4606EBC60101EB061118
:10405000002701EB0B0504E0E85DE9197F1C4876B9
:104060007FB2287EB842F7DA95F83100297E88427F
:1040700020D995F91800202202E02A54401C40B2B1
:1040800095F831108142F8DA2C54CDE901A4D9F821
:1040900004000090704200EB800198F802C02A46AC
:1040A0000CEB41010A3989B298F80000D9F80030C8
:1040B000FEF706FC287E85F83100E81905F11902A3
:1040C0004476CDE901A4D9F804000090704200EBD9
:1040D000800500E0A5E098F8021098F8000001EBD8
:1040E00045010A3989B2D9F80030FEF7E9FB761E9E
:1040F00076B2002EA8DCB44A9BF831009BF8181069
:10410000193288425D464FF0000005D922E0295C53
:104110002B18401C597640B2297E8142F7DA284498
:1041200085F831104476CDE901A4D9F80410009146
:1041300098F8021098F800000A3989B200E05EE0B1
:10414000D9F80030FEF7BCFB27E0295C2B18401C97
:10415000597640B2297E8142F7DA95F9180020217C
:1041600003E02B18401C597640B295F83130834259
:10417000F7DA28444476CDE901A4D9F80410009177
:1041800098F8021098F800000A3989B2D9F800307E
:10419000FEF796FB287E85F83100CDE901A4D9F819
:1041A000041000915746894A464698F8021098F83C
:1041B0000000D9F80030FEF783FB287E162807D2CE
:1041C00000202C54401C40B21628FADB34713BE12D
:1041D0007B4800780A2814D00D2812D028706C7003
:1041E000CDE90174D9F804100091774AB17830789C
:1041F000D9F80030FEF764FB012028763071BDE865
:10420000FE8F2C702C76CDE90174D9F80410009142
:104210006D4AB1783078D9F80030FEF751FB34712F
:10422000EDE76B498842EAD101226A496A48FDF705
:10423000BDFA68486049644D0078083196350870C9
:104240000A2820D00D281ED0297E162926D298F8BB
:1042500005204646A854287E401C2876CDE901A4B6
:10426000D9F804000090C2EBC200534A98F803103A
:104270000832D9F80030FEF723FB7079401CC0B239
:1042800070712C54BBE7297E162907D26C54297E05
:10429000162903D20A2801D00D28B0D10426AB4636
:1042A00006EBC60101EB0611002701EB0B0504E04C
:1042B000E85DE9197F1C48767FB2287EB842F7DABC
:1042C00095F83100297E884220D995F918002022DE
:1042D00002E02A54401C40B295F831108142F8DACD
:1042E0002C54CDE901A4D9F804000090704200EBF1
:1042F000800198F803C02A460CEB41010A3989B2C3
:1043000098F80100D9F80030FEF7DAFA287E85F82F
:104310003100E81905F119024476CDE901A4D9F874
:1043200004100091714201EB810398F8031098F892
:10433000010001EB43010A3989B2D9F80030FEF7D8
:10434000BFFA761E76B2002EAADC204A9BF8310016
:104350009BF818107D3A88425D464FF0000005D961
:1043600020E0295C2B18401C597640B2297E8142FE
:10437000F7DA284485F831104476CDE901A4D9F85C
:104380000400009098F8031098F801000A3989B2E7
:10439000D9F80030FEF794FA3CE0295C2B18401C59
:1043A000597640B2297E8142F7DA95F91800202328
:1043B00018E0000000380140080000200000002044
:1043C00012000020DC020020400100206C020020CE
:1043D00000440040130000201C0300202918401C4A
:1043E0004B7640B295F831108142F7DA2844447692
:1043F000CDE901A4D9F80410009198F8031098F8B9
:1044000001000A3989B2D9F80030FEF759FA287E3E
:1044100085F83100CDE901A4D9F8040000904F4699
:104420001D4A464698F8031098F80100D9F8003064
:10443000FEF746FA287E162808D200202C54401C8D
:1044400040B21628FADB74712C76D8E6134800784F
:104450000A2812D00D2810D028706C70CDE901A464
:10446000786800900C4AF178963A70783B68FEF7CD
:1044700027FA012028767071C1E62C702C76CDE9E0
:1044800001A478680090044AF178963A70783B6805
:10449000FEF716FA7471B2E66C02002013000020D9
:1044A000000000000000000000000000000000000C
:1044B000000000000010001000100010001000109C
:1044C0000000001000000000002800280028000064
:1044D0000000000000000000000000000024002494
:1044E000007C00240048007C0048004800000000D8
:1044F00000380054005000380014005400540038B4
:104500000010000000200054005800300028005423
:10451000001400080000000000100028002800100F
:104520000034004800480034000000000010001073
:10453000001000000000000000000000000000006B
:104540000008001000200020002000200020002093
:1045500000100008002000100008000800080008F3
:10456000000800080010002000100038001000288B
:10457000000000000000000000000000000000003B
:1045800000100010007C001000100000000000006F
:10459000000000000000000000000000000000100B
:1045A00000100010000000000000000000000038B3
:1045B00000000000000000000000000000000000FB
:1045C00000000000000000100000000000080008CB
:1045D000001000100010001000200020000000005B
:1045E00000380044004400540044004400440038B3
:1045F00000000000001000300050001000100010FB
:1046000000100010000000000038004400440004C6
:10461000000800100020007C00000000003800446A
:1046200000040018000400040044003800000000EA
:1046300000080018002800280048007C0008000836
:1046400000000000007C00400040007800040004EE
:1046500000440038000000000038004400400078AA
:10466000004400440044003800000000007C0004C6
:1046700000080010001000200020002000000000B2
:10468000003800440044003800440044004400382E
:10469000000000000038004400440044003C0004D6
:1046A000004400380000000000000000001000007E
:1046B00000000000000000100000000000000000EA
:1046C00000000010000000000000001000100010AA
:1046D00000000000000C003000400030000C000022
:1046E00000000000000000000000007C0000007CD2
:1046F0000000000000000000000000000060001842
:1047000000040018006000000000000000380044B1
:10471000000400080010001000000010000000005D
:1047200000380044004C0054005C00400040003859
:104730000000000000100028002800280028007C4D
:104740000044004400000000007800440044007869
:104750000044004400440078000000000038004499
:1047600000400040004000400044003800000000CD
:1047700000700048004400440044004400480070B9
:1047800000000000007C00400040007C0040004031
:104790000040007C00000000007C004000400078E9
:1047A000004000400040004000000000003800448D
:1047B00000400040005C004400440038000000005D
:1047C000004400440044007C004400440044004491
:1047D0000000000000380010001000100010001051
:1047E0000010003800000000000400040004000471
:1047F00000040004004400380000000000440048A9
:1048000000500060005000480048004400000000D4
:104810000040004000400040004000400040007C5C
:10482000000000000044006C006C00540044004490
:104830000044004400000000004400640064005490
:104840000054004C004C00440000000000380044BC
:1048500000440044004400440044003800000000CC
:1048600000780044004400440078004000400040CC
:1048700000000000003800440044004400440044AC
:104880000054003800040000007800440044004454
:104890000078004800480044000000000038004450
:1048A0000040003000080004004400380000000010
:1048B000007C00100010001000100010001000100C
:1048C0000000000000440044004400440044004450
:1048D0000044003800000000004400440044002868
:1048E00000280028001000100000000000440044D0
:1048F000005400540054006C002800280000000000
:10490000004400280028001000100028002800445F
:10491000000000000044004400280028001000109F
:104920000010001000000000007C000400080010CF
:10493000001000200040007C000000000018001063
:1049400000100010001000100010001000100018DF
:1049500000200020001000100010001000080008C7
:1049600000000000003000100010001000100010C7
:104970000010001000100030001000280028004433
:104980000000000000000000000000000000000027
:10499000000000000000000000000000000000FE19
:1049A00000200010000000000000000000000000D7
:1049B000000000000000000000380044003C0044FB
:1049C000004C00340000000000400040005800642B
:1049D0000044004400640058000000000000000093
:1049E000003800440040004000440038000000004F
:1049F000000400040034004C00440044004C003427
:104A0000000000000000000000380044007C00406E
:104A10000044003800000000000C0010007C001072
:104A20000010001000100010000000000000000046
:104A30000034004C00440044004C00340004007872
:104A4000004000400058006400440044004400441A
:104A500000000000001000000070001000100010A6
:104A60000010001000000000001000000070001096
:104A70000010001000100010001000E00040004086
:104A80000048005000600050004800440000000052
:104A90000070001000100010001000100010001036
:104AA0000000000000000000007800540054005492
:104AB0000054005400000000000000000058006492
:104AC00000440044004400440000000000000000D6
:104AD0000038004400440044004400380000000056
:104AE00000000000005800640044004400640058C6
:104AF00000400040000000000034004C004400442E
:104B0000004C003400040004000000000058006461
:104B10000040004000400040000000000000000095
:104B20000038004400300008004400380000000055
:104B30000020002000780020002000200020001825
:104B40000000000000000000004400440044004455
:104B5000004C00340000000000000000004400444D
:104B600000280028002800100000000000000000BD
:104B7000005400540054006C00280028000000007D
:104B8000000000000044002800100010002800442D
:104B9000000000000000000000440044002800283D
:104BA000001000100010006000000000007C0008F1
:104BB000001000200040007C0000000000180010E1
:104BC000001000100020002000100010001000183D
:104BD0000010001000100010001000100010001055
:104BE0000010001000300010001000100008000835
:104BF00000100010001000300000000000000074E1
:104C0000004C000000000000000000000F01809632
:104C10001180FFB103012C2DB203012C2DB306012D
:104C20002C2D012C2DB40107C003A20284C101C5A3
:104C3000C2020A00C3028A2AC4028AEEC5010E20FB
:104C4000003601603A0105022A040000007F2B04AF
:104C50000000007F04E010021C07123732292D29C2
:104C6000252B3900010310E110031D07062E2C2906
:104C70002D2E2E373F0000021013800A2980640079
:104C80008002021F00000053544D2020202020509D
:104C9000726F647563742020202020202020203033
:104CA0002E30310000000000000000010203040665
:104CB00007080900000000010203040000000300CF
:104CC00080830000000000000000000600000000DB
:104CD00000000000F44C000800000020400100002B
:104CE00090010008B04D0008400100206015000050
:104CF000C23E000823070A13A044220883763532F7
:104D00000113853E1B089D041A99041AAD041A95D7
:104D1000048113DD2D14080D2E1B0819041A4104FB
:104D20001A69041ABD141AE90417040309041201CC
:104D30003202164083042A571D0201020351133127
:104D4000291B081F041A35041A39041A3D041A4194
:104D5000041A2D04137F4C2A0874821044A24A04BA
:104D600013F5331B0897048B51347C1A83101A8D6A
:104D700004C11ADD101AD1041AE9041AC504140971
:104D800002201F010104C0320947180A0208065018
:104D90000507058102942C0705010709142022400C
:104DA000292019070B1C0907204B0A06E029B4002B
:04000005080000ED02
:00000001FF
